:020000040800F2
:1000000000200020C10100087F1900080517000822
:100010007D19000871030008751C0008000000002D
:10002000000000000000000000000000311C00087B
:10003000730300080000000085190008331C000845
:10004000DB01000881190008DB010008DB01000862
:10005000DB010008DB010008DB010008DB01000810
:10006000DB010008DB010008DB010008DB01000800
:10007000DB010008DB010008DB010008DB010008F0
:10008000DB010008DB010008DB010008DB010008E0
:10009000DB010008DB010008DB010008DB010008D0
:1000A000DB010008DB010008DB010008DB010008C0
:1000B000DB010008DB010008DB010008DB010008B0
:1000C000DB010008DB010008DB010008DB010008A0
:1000D000DB010008DB010008DB010008DB01000890
:1000E000DB010008DB010008DB010008DB01000880
:1000F000DB010008DB010008DB010008DB01000870
:10010000DB010008DB010008DB010008DB0100085F
:10011000DB010008DB010008DB010008DB0100084F
:10012000DB010008DB010008DB010008DB0100083F
:10013000DB010008DB010008DB010008DB0100082F
:10014000DB010008DB010008DB010008DB0100081F
:10015000DB010008DB01000849190008DB01000889
:10016000DB010008DB010008DB010008DB010008FF
:10017000DB010008DB010008DB01000800000000D3
:10018000DB010008DB010008DB010008DB010008DF
:10019000DB010008DB010008DB010008DB010008CF
:1001A000DB010008DB010008DB010008DFF80CD0F0
:1001B00000F090F800480047F91C000800200020DB
:1001C0000648804706480047FEE7FEE7FEE7FEE7F1
:1001D000FEE7FEE7FEE7FEE7FEE7FEE7391C000864
:1001E000AD0100082DE9F05F0546002092469B46D0
:1001F00088460646814640241BE02846414647463D
:10020000224600F056F853465A46C01A914110D380
:1002100011461846224600F03DF82D1A67EB0108FA
:100220004F4622460120002100F034F817EB000968
:100230004E41201EA4F10104DFDC484631462A4627
:10024000434600F000B830BCBDE8C09F40EA01035F
:100250009B0703D009E008C9121F08C0042AFAD27C
:1002600003E011F8013B00F8013B521EF9D2704740
:10027000D2B201E000F8012B491EFBD270470022E8
:10028000F6E710B513460A4604461946FFF7F0FF95
:10029000204610BD202A04DB203A00FA02F100209B
:1002A00070479140C2F1200320FA03F319439040B4
:1002B0007047202A04DB203A21FA02F0002170471F
:1002C00021FA02F3D040C2F12002914008431946BE
:1002D00070470000064C074D06E0E06840F001035F
:1002E00094E8070098471034AC42F6D3FFF762FF5A
:1002F000502900087029000830B5ADF5017D05468C
:100300004FF4807422460D496846FFF79FFF22464E
:100310000B4940A8FFF79AFF224669460948FFF7B4
:1003200095FF224640A90848FFF790FF0549284657
:10033000B03901F0A3FA0DF5017D30BD502700085A
:1003400050280008540D0020540E002070B50023E2
:10035000002200EB820401EB8206E55CF65C521C95
:100360007540E554042AF4DB5B1C042BF0DB70BD04
:10037000FEE770470349087800B972B6401C087060
:10038000704700005800002004490878401E10F013
:10039000FF00087000D162B67047000058000020CE
:1003A00038B5054600208DF8001001216C46621812
:1003B00012F8012C53061B0E6354120602D583F06B
:1003C0001B026254491C0429F1DB002125FA01F2C9
:1003D000D20701D0625C5040491C0429F6DB38BDCD
:1003E000124A107F1249012801D003280BD10B6853
:1003F00043F400630B600B6823F400630B600B682D
:1004000043F400730B60022801D003280BD1086865
:1004100040F480500860086820F480500860086844
:1004200040F48060086000201077704710000020C2
:10043000002002400849C20703D04A6942F0040282
:100440004A61800703D5486940F400404861486923
:1004500040F480304861704700200240CA070B49D1
:100460004A6902D022F4006201E042F400624A616B
:100470004A6960F3CA024A61486940F00200486173
:10048000486940F480304861704700000020024015
:10049000054910B54C6944F001044C610260BFF39A
:1004A0006F8F436010BD000000200240094B10B563
:1004B0005C69402244F480245C61EFF3108372B6DF
:1004C00010C910C0521E12F0FF02F9D183F3108838
:1004D00010BD00000020024070B5044600F062FA32
:1004E0000646134D08E0601C06D000F05BFA801B46
:1004F000A04201D3032070BD2869C003F3D428694A
:100500004CF2FA3108400CD00A494A6802434A606A
:10051000810F01D0A969A961810000D02861012063
:1005200070BD2869C00701D001202861002070BD7E
:10053000002002401000002030B5104909684FF437
:100540008013CD050E494FF000640A686FEA02017E
:1005500089B20AD409B111048B0904EB5301814219
:1005600001D9012030BD022030BD09B111048B0931
:1005700004EB53018142F6D8F3E70000000001408C
:10058000E075FF1F30B50F494FF480120968CC4366
:1005900023041B0C0BD00B049B094FF0006505EBEB
:1005A0005303834205D9A0F10060C00A30BD134651
:1005B000F3E723041B0C01D009048A09A0EB5200C5
:1005C000F1E70000E075FF1F0A4810B54FF0FF315A
:1005D0008163C16300228263C26301640264816239
:1005E0008262C162C2620163026300F021FA0020EC
:1005F00010BD00000010024070B5044600F0D2F9B2
:100600000546601C02D004480078044400F0CAF992
:10061000401BA042FAD370BD040000202DE9F05F1A
:10062000044635488946017801290CD001258046C9
:1006300005704CF2503B5846FFF74EFF06004FF056
:10064000000A03D053E0022000F05AB85146404659
:10065000C8F804A0294F3A6892050ED5396821F4EC
:10066000007139603968490505D5396821F4806120
:100670003960032109E0057708E03A68520504D59E
:10068000396821F4806139600221017720680128EE
:1006900007D04FF0FF31C9F8001040F2FA7BA5688F
:1006A0001EE06068FFF7C6FE5846FFF715FF0646D6
:1006B000786948F204018843786116E02846616849
:1006C000FFF7CCFE4CF25030FFF706FF06007869CA
:1006D00020EA0B00786102D0C9F8005005E06D1CDB
:1006E000D4E902010844A842E8D8FFF779FE88F867
:1006F00000A03046A8E700001000002000200240C3
:1007000030BCBDE8C09F00000348416941F0004192
:100710004161002070470000002002402DE9FF5F8A
:10072000254F05460024387891469B46012809D07C
:10073000012038704CF25030FFF7CEFE0600A24682
:1007400004D035E0022004B000F03AB85046C7F8B3
:1007500004A0DFF86880D8F80010490506D5D8F85D
:10076000001021F48061C8F800100220387725B10C
:10077000012D09D0022D07D00DE04A465B460198B5
:10078000FFF786FE012406E049460198FFF78EFE3A
:10079000022D00D16C044CF25030FFF79DFE06464E
:1007A00024B1D8F81410A143C8F81410FFF718FEAC
:1007B00087F800A03046C6E7100000200020024065
:1007C00030BCBDE8C09F0000064900204A69002AED
:1007D00007DA054A8A60054A8A604969002900DA11
:1007E000012070470020024023016745AB89EFCD0F
:1007F0002DE9F84FDFF87CB100224FF003094FF0EC
:100800000F0A0BF1040EAEE0012595402B4071D08C
:100810004C68012C05D0022C03D0112C01D0122CD5
:1008200010D18668540009FA04F7BE43CF68A74088
:10083000374387604468AC430D79C5F30015954094
:1008400025434560C468570009FA07F58E68AC4334
:10085000BE402643C6604C68022C01D0122C12D137
:10086000D40800EB840CDCF820605407E40E0AFA8C
:1008700004F826EA0806D1F8108008FA04F848EAD5
:100880000608CCF820800468AC430D7905F0030518
:10089000BD40254305604C68E40063D5364C256EA9
:1008A00045F001052566246E22F0030504F00104DD
:1008B0000094324C2E19B7689407250F0AFA05F4F4
:1008C000A743B0F1904F04D02D4CA04203D1012496
:1008D00021E000241FE02B4CA04201D102241AE0A9
:1008E000294CA04201D1032415E0284CA04202D19A
:1008F000042410E036E0264CA04201D105240AE091
:10090000244CA04201D1062405E0234CA04201D191
:10091000072400E00824AC403C43B460DBF800400E
:100920005D464E689C43F60300D51C432C60DEF800
:10093000004075464E689C43B60300D51C432C60AE
:100940000C4D08352C684E689C43F60200D51C43BC
:100950002C60084D0C352C684E689C43B60200D5BF
:100960001C432C60521C0B6833FA02F47FF44CAF2A
:1009700000F014B8000401400010024000000140E3
:100980000004004800080048000C0048001000481F
:100990000014004800180048001C004818BCBDE8BE
:1009A000E08F0000014880687047000004000020CC
:1009B0000248816802781144816070470400002079
:1009C000094810B50168002441F4807101600520D8
:1009D00000F07CF8002000F009F808B1012401E0E3
:1009E00000F027F8204610BD0020024070B50E4EE2
:1009F00005460024307898B14FF47A71B1FBF0F0DD
:100A00000A490968B1FBF0F000F068FE40B9102D0A
:100A100006D200222946501E00F038F8756000E02A
:100A20000124204670BD00000400002000000020CA
:100A300070477047002809DB00F01F020121914038
:100A40004009800000F1E020C0F8801270470028C3
:100A50000DDB00F01F02012191404009800000F1F0
:100A6000E020C0F88011BFF34F8FBFF36F8F704746
:100A7000002809DB00F01F0201219140400980009D
:100A800000F1E020C0F8001170470000F0B40E4BF8
:100A90001B68C3F30223C3F10704042C00D9042408
:100AA0001D1D072D01D2002300E0DB1E012606FAE2
:100AB00004F56D1E0D409D409E40761E164045EA91
:100AC0000601F0BC01F0D7B80CED00E0064A00F0DA
:100AD000070110684FF6FF03184040EA0120034960
:100AE00008431060704700000CED00E00000FA05BC
:100AF0001649B0F5007F0868C0F3412009D00228EC
:100B000005D0086820F4C06040F4806008600020D0
:100B100070470128FBD0086820F4C06040F40070E2
:100B200008600B483222006850430A4AB0FBF2F0DA
:100B3000401C00E0401E4A69520501D50028F9D149
:100B400048694005E3D5032070470000007000406D
:100B50000000002040420F000248006800F4C0601E
:100B6000704700000070004010B5144C2068C003AE
:100B700004D500F031F84FF4803020600F4C203461
:100B80002068000703D500F01BF8082020602068CB
:100B9000C00603D500F015F81020206020688006FC
:100BA00003D500F00FF8202020602068400603D510
:100BB00000F009F84020206010BD0000140401403E
:100BC00070477047704770470248016841F4807170
:100BD0000160704700700040704700002DE9F84F39
:100BE000044600250088EB4E2F46010504F1200B3A
:100BF0001DD5A06E78B1B0F5800F11D0B0F5000F03
:100C000004D0B0F5400F22D001250FE0F06840F489
:100C10008030F0601BE00021201D00F0B5FE03E0F5
:100C20000021584600F044FF050010D02F462088D0
:100C3000C00426D5E06EC0B1B0F1807F1AD0B0F10B
:100C4000007F0DD0B0F1407F19D0012518E0D6F813
:100C50008800A16E20F440000843C6F88800E6E74B
:100C6000F06840F48030F06009E00021201D00F0C1
:100C70008BFE03E00021584600F01AFF0546F5B14F
:100C80002F462068800367D5B06D4FF00009C00083
:100C900009D4B06D40F08050B065B06D4FF00109DF
:100CA00000F080500090DFF8F0A2DAF8001041F474
:100CB0008071CAF80010FFF775FE804610E0D6F884
:100CC0008800E16E20F040700843C6F88800D8E73D
:100CD000FFF768FEA0EB0800022801D9032533E0E6
:100CE000DAF80000C005F3D575BBD6F8900010F413
:100CF000407015D0D4F88810814211D0D6F89000F9
:100D0000D6F8901020F4407041F48031C6F890106D
:100D1000D6F8901021F48031C6F89010C6F89000F3
:100D2000C0077DD0FFF73EFE804641F2883A05E0DD
:100D3000FFF738FEA0EB08015145CFD8D6F8900058
:100D40008007F5D5002D6BD02F46B9F1000F03D0E9
:100D5000B06D20F08050B0652078C00707D0D6F87D
:100D60008800A16B20F003000843C6F888002078B3
:100D7000800707D5D6F88800E16B20F00C00084307
:100D8000C6F888002078400707D5D6F88800216C7F
:100D900020F030000843C6F888002078000707D507
:100DA000D6F88800616C20F0C0000843C6F88800BF
:100DB0002078C00607D5D6F88800A16C20F44070D2
:100DC0000843C6F888002078800607D5D6F8880042
:100DD000E16C20F440600843C6F888002088800554
:100DE00007D5D6F88800216E20F440200843C6F8C5
:100DF00088002088400507D5D6F88800616E20F469
:100E000040100843C6F888002078400607D5D6F879
:100E10008800216D20F440500843C6F8880000E0A7
:100E200037E02078000607D5D6F88800616D20F4F9
:100E300040400843C6F888002088C00507D5D6F88A
:100E40008800A16D20F440300843C6F8880020686F
:100E5000C00207D5D6F89C00E16D20F003000843DE
:100E6000C6F89C0020884FF0006580044FF0806831
:100E700021D5D6F88800216F20F040600843C6F8DD
:100E80008800206FA8420ED1F06840F48010F06016
:100E900011E0D6F89000D4F8881020F44070084390
:100EA000C6F8900051E7404505D10121201D00F012
:100EB0006BFD00B107462068000317D5D6F88800FF
:100EC000616F20F040600843C6F88800606FA84258
:100ED00004D1F06840F48010F06007E0404505D18F
:100EE0000121201D00F050FD00B10746206840039D
:100EF00017D5D6F88800A16F20F040600843C6F8E7
:100F00008800A06FA84204D1F06840F48010F0601F
:100F100007E0404505D10121201D00F035FD00B15D
:100F20000746208840041AD5D6F88800E16F20F0E3
:100F300040500843C6F88800E06FB0F1805F03D0EE
:100F4000B0F1005F05D00AE00221201D00F01CFD79
:100F500003E00221584600F0ABFD00B107462088AF
:100F6000000408D5D6F88800D4F8801020F080401E
:100F70000843C6F888002068C00307D556F8880FD4
:100F8000D4F8841020F0004008433060384600F068
:100F900005B80000001002400070004018BCBDE819
:100FA000E08F00002DE9F0470D4604005ED0DFF829
:100FB0000C81D8F8000000F00700A8420CD2D8F845
:100FC000001021F007012943C8F80010D8F80000EC
:100FD00000F00700A84249D12078394EC0072BD035
:100FE0006068032811D0022812D0316898B14905F1
:100FF00000293BDAB16821F003010143B160FFF73A
:10100000D1FC074641F288390FE031688901EFE7EA
:1010100031688903ECE78907EAE7FFF7C3FCC11BE6
:10102000494502D90320BDE8F087B068616800F047
:101030000C00B0EB810FF0D12078800705D5B068A7
:10104000A16820F0F0000843B060D8F800104046D6
:1010500001F00701A9420BD9016821F007012943DA
:101060000160006800F00700A84201D00120DAE723
:101070002078400705D5B068E16820F4E0600843B7
:10108000B0602078000706D5B068216920F4605070
:1010900040EAC100B06000F01BF8B168094AC1F332
:1010A0000311515C01F01F01C8400749086007485F
:1010B0000068BDE8F047FFF799BC0000002002403F
:1010C0000010024010270008000000200800002047
:1010D00070B5254B002210469968DC6811F00C01B0
:1010E00004F00306214C4FEA640508D00C2904D013
:1010F000042931D0082931D010E0012E10D11A680E
:10110000120704D4D3F89420C2F3032202E01A6831
:10111000C2F30312164E56F82220D9B10C2918D169
:10112000D86800F0030002281AD003281AD010460D
:10113000D968DA68C1F30211C2F306224243491C9E
:10114000B2FBF1F0D968C1F34161491C4900B0FB21
:10115000F1F070BD104670BD204670BD284670BDD0
:101160002046E5E72846E3E7001002400024F400AB
:10117000202700082DE9F84304006FD0F74EB0682F
:1011800000F00C05F06800F003072078C00664D575
:1011900075B10C2D01D1012F0AD0A069002830684B
:1011A00079D040F001003060FFF7FCFB80465CE046
:1011B0003068800702D5A0690028DED0216A306837
:1011C000000703D5306800F0F00004E0D6F8940082
:1011D000F02202EA1010814216D9084600F0EAFC1B
:1011E00000283BD1306840F0080030603068216A48
:1011F00020F0F000084330607068E16920F47F401F
:1012000040EA0120706016E0306840F0080030606D
:101210003068216A20F0F000084330607068E169AE
:1012200020F47F4040EA0120706025B9206A00F078
:10123000C1FC0028D5D1FFF74BFFB168C84AC1F304
:101240000311515C01F01F01C840C6490860C6483F
:101250000068FFF7CBFB00287ED12CE0C6E0FFF74B
:10126000A1FBA0EB0800022877D830688007F6D5EC
:10127000306840F0080030603068216A20F0F000EB
:10128000084330607068E16920F47F4040EA012043
:10129000706010E0FFE720F001003060FFF782FB94
:1012A000804605E0FFF77EFBA0EB08000228DBD8B4
:1012B00030688007F6D42078C00740D0082D18D0B9
:1012C0000C2D01D1032F14D06068B0F5803F17D0EA
:1012D000B0F5A02F306817D020F48030306030682F
:1012E00020F4802030606068E0B1FFF75BFB80464F
:1012F00014E03068800322D56068002876D01EE0B4
:10130000306840F48030EDE740F480203060F7E74B
:10131000FFF748FBA0EB08006428A5D830688003DD
:10132000F6D50CE0FFF73EFB804605E0FFF73AFB01
:10133000A0EB0800642897D830688003F6D42078A2
:10134000800739D5042D11D00C2D01D1022F0DD0DD
:10135000E0680028306801E0B2E1FBE01DD040F415
:1013600080703060FFF71EFB07460BE030684005D9
:101370000BD5E0680028C1D007E0FFF713FBC01BC6
:10138000022894D830684005F7D57068217C20F099
:10139000FE4040EA016070600EE020F48070306032
:1013A000FFF700FB074604E0FFF7FCFAC01B02282A
:1013B000B3D830684005F7D42078000728D5606995
:1013C0000028D6F8940012D040F00100C6F894002E
:1013D000FFF7E8FA074604E0FFF7E4FAC01B02282B
:1013E0009BD8D6F894008007F6D511E028E120F0CC
:1013F0000100C6F89400FFF7D5FA074604E0FFF7AE
:10140000D1FAC01B022888D8D6F894008007F6D4F9
:101410002078400765D5B06D4FF00008C00009D4B2
:10142000B06D40F08050B065B06D4FF0010800F035
:10143000805000904D480168C90511D4016881466B
:1014400041F480710160FFF7ADFA074604E0FFF751
:10145000A9FAC01B02287DD8D9F80000C005F6D52E
:10146000A068012815D00528D6F8900016D020F0E5
:101470000100C6F89000D6F8900020F00400C6F8ED
:101480009000A06841F28839B8B1FFF78BFA07469F
:101490000EE0D6F8900040F00100F0E740F00400C4
:1014A000C6F89000F5E7FFF77DFAC11B494551D812
:1014B000D6F890008007F6D50CE0FFF773FA0746E0
:1014C00004E0FFF76FFAC11B494543D8D6F89000F6
:1014D0008007F6D4B8F1000F03D0B06D20F0805033
:1014E000B0652078800627D5606A0028D6F8980075
:1014F00011D040F00100C6F89800FFF753FA0746F4
:1015000004E0FFF74FFAC01B022823D8D6F8980052
:101510008007F6D510E020F00100C6F89800FFF72C
:1015200041FA074604E0FFF73DFAC01B022811D834
:10153000D6F898008007F6D4A06AE8B3022817D03E
:101540000C2D7DD0306820F080703060306810F055
:10155000205F00E0B3E074D0A4E00000001002407F
:101560001027000800000020080000200070004044
:10157000F068E26A00F00301914228D1216B00F08B
:10158000700209011039914221D1626B00F4FE41D1
:10159000B1EB022F1BD194F8382000F07841B1EB69
:1015A000C26F14D1A18F00F4C00249084905A1F50A
:1015B000001191420BD100E06FE094F8401000F070
:1015C000C06049084906A1F1007181424ED00C2D3E
:1015D0007DD0306840017AD43068C00077D430685C
:1015E00020F080703060FFF7DDF9054604E0FFF77A
:1015F000D9F9401B022862D830688001F7D4F4E999
:101600000B016FF00F0202EB01110843218A520413
:10161000490802EB4151A26841EA02210843217DB9
:101620004FF07E42490802EB41610843217B40EACA
:10163000C160F168274A11400843F060306801E05A
:1016400045E02BE040F080703060F06840F0807042
:10165000F060FFF7A7F9044604E0FFF7A3F9001BC9
:1016600002282CD830688001F7D52EE03068800140
:101670002BD4306840F080703060F06840F08070AB
:10168000F060FFF78FF9044604E0FFF78BF9001BC9
:10169000022814D830688001F7D516E0F06820F0F1
:1016A0000300F060F0680C490840F060FFF77AF939
:1016B000044607E0FFF776F9001B022802D9032051
:1016C000BDE8F88330688001F4D40020F8E70120F9
:1016D000F6E700008C809D01FFFFEEFE10B5401E76
:1016E000B0F1807F01D3012010BD4FF0E024606194
:1016F0000F21601700F0BFFA0020A06107202061D1
:10170000002010BDFEE70000FFB5044600206D4636
:10171000002105EB800200EB8103E35C5354491C7C
:101720000429F8DB401C0428F2DB14492846FEF7A4
:101730000DFE124F0926A03F684600F070F868467B
:1017400000F08AF807EB06116846FEF7FFFD16B1B8
:10175000684600F022F8761EEED50020002105EB49
:10176000800200EB8106535C491CA3550429F8DB79
:10177000401C0428F2DB04B02046F0BD440D0020DC
:1017800070B50E460546002403E02819FFF7BCFF9C
:101790001034B442F9DB284670BD2DE9F84180468B
:1017A00000256E46002008EB8001495D3154401C45
:1017B0000428F8DB00240E20315DFEF7F1FD07461A
:1017C000601CC11700EB917121F00301401A815D8B
:1017D0000B20FEF7E5FD4740A01CC11700EB9171FF
:1017E00021F00301401A815D0D20FEF7D9FD47402D
:1017F000E01CC11700EB917121F00301401A815DDB
:101800000920FEF7CDFD474008EB8400641C4755D6
:10181000042CD0DB6D1C042DC4DBBDE8F88178B549
:1018200001226D46002100EB82048B1A1B1DDE177E
:1018300003EB967626F003069B1BE35C6B54491C76
:101840000429F2DB00216B5C6354491C0429FADB98
:10185000521C042AE6DB78BD30B5074C002200217B
:1018600000EB82035D5C655D5D54491C0429F9DB76
:10187000521C042AF3DB30BD540E0020FFB52DA20C
:101880001CCA8DE81C000023002201EB830403EB3B
:101890008205455DA554521C042AF8DB5B1C042B11
:1018A000F2DBDFF89CC0012503AE002001EB05143C
:1018B000002204EB820318B1034413F8013C01E059
:1018C00013F80D3CB354521C042AF2DBE8B99DF81E
:1018D0000CE00022531CDF1703EB977727F0030778
:1018E000DB1B9B5D1CF80330B354521C032AF1DB55
:1018F0001CF80E208DF80F200DEB05039DF80C2031
:1019000013F8013C5A408DF80C20002204EB8203AE
:101910001F1816F802E017F8107C521C87EA0E0711
:101920001F54042AF2DB401C0428C1DB6D1C0A2D65
:10193000BBDD07E001020408102040801B360000D8
:10194000540D002003BCFCBD70B50B48C46905688C
:1019500014F0280F04D015F0240F01D000F01AFD68
:1019600014F0C00F06D015F0C80F03D0BDE87040CA
:1019700000F02EBD70BD000000800040FEE7704703
:10198000FFF7F2B8704700002DE9F041434E0546DD
:101990008846F0680024810728680ED0F16801F0BD
:1019A0000301814207D130B1F0686968C0F30210C9
:1019B000401C88421FD001246DE0012809D0022874
:1019C0000AD00328F7D13168890309D43168490363
:1019D00004E03168890701E0316849050029EADA45
:1019E000F1686A686FF00F0321F0730103EB0212D4
:1019F00011430143F160306820F080603060FEF7F1
:101A0000D1FF074604E0FEF7CDFFC01B022838D8FF
:101A100030680001F7D474BBB8F1000F18D0B8F1EA
:101A2000010F1DD0287D4FF07E41400801EB406042
:101A3000A96840EA01203169194A11400843306120
:101A4000306840F080603060FEF7ACFF07461AE077
:101A5000A868297B000240EAC1603169114AECE7BD
:101A6000288A1149400801EB4050A96840EA01204A
:101A700031690E4AE1E70EE0FEF794FFC01B022831
:101A800001D9032407E030680001F5D51CB930699D
:101A9000A969084330612046BDE8F081001002408A
:101AA000FF80FFF9FF80FF070000E0FFFF809FFF3E
:101AB0002DE9F0413C4E05468846F0680024810738
:101AC00028680ED0F16801F00301814207D130B1DE
:101AD000F0686968C0F30210401C88421FD00124DE
:101AE0005EE0012809D002280AD00328F7D1316826
:101AF000890309D43168490304E03168890701E0AA
:101B0000316849050029EADAF1686A686FF00F0365
:101B100021F0730103EB021211430143F1603068BD
:101B200020F080503060FEF73DFF074604E0FEF7EE
:101B300039FFC01B022829D830688000F7D434BB95
:101B4000B8F1000F15D0287C4FF07E41400801EB22
:101B50004060A96840EA01207169144A11400843B5
:101B60007061306840F080503060FEF71BFF074620
:101B70000EE0A868297B000240EAC16071690C4A46
:101B8000ECE7FEF70FFFC01B022801D9032407E092
:101B900030688000F5D51CB97069696908437061C7
:101BA0002046BDE8F081000000100240FF80FFF9F0
:101BB000FF80FF07F8B51C4E05460024B06DC0003D
:101BC00002D5FEF7C9FF0DE0B06D40F08050B06562
:101BD000B06D00F080500090FEF7BEFFB16D21F0B7
:101BE0008051B165B0F5007F04D0802D07D94FF04A
:101BF00003040AE0802D08D9A02D01D804E001D10A
:101C0000022402E0702D00D101240848016821F06F
:101C1000070121430160006800F00700A04201D0E5
:101C20000120F8BD0020F8BD001002400020024055
:101C30007047FEF7BDBE00000B48016841F470011B
:101C400001600A48016841F00101016000218160E2
:101C50000268074B1A4002608214C260026822F4D4
:101C6000802202608161704788ED00E00010024030
:101C7000FFFFF6EAFEE70907090E002804DB00F182
:101C8000E02080F80014704700F00F0000F1E02021
:101C900080F8141D704702E008C8121F08C1002A0E
:101CA000FAD170477047002001E001C1121F002ADD
:101CB000FBD1704770B504464FF0E0210020086169
:101CC000FEF782FC4FF0FF352846FEF7C0FE28469F
:101CD000FEF7B0FE4620FEF7BAFE4620FEF7AAFE4B
:101CE00061680448C160206880F30888BDE87040DE
:101CF0000847000048000020FEF762FE6420FEF75F
:101D00007BFC104841690905FCD400F0F3FB00F0AE
:101D100095FB4FF40070FEF7EBFE0B48816821F451
:101D200000418160002208214FF4614000F008FC6E
:101D300000F0BAFB00F006FB00F048F90A20FEF7BD
:101D40005BFCF9E7007000400010024010B5002471
:101D500000F063F8012800D10124204610BD0000E6
:101D6000F0B585B0184B054600264FF400400496A8
:101D700018611A694CF2FA30104016EA927F01D0CD
:101D80009A699A61820000D0186110486C188442E8
:101D900014D82846FEF7F6FB07462046FEF7F2FB6E
:101DA000C41B2846641CFEF7C7FBCDE90060CDE9E3
:101DB000027404A96846FEF731FC10B1002005B09A
:101DC000F0BD0120FBE7000000200240FFB707083C
:101DD0002DE9F0410E46C2F3CF0502F00707044695
:101DE00000EB020815E015B90FB1394602E06D1E8F
:101DF000ADB20821304600F04BF802460B462146B2
:101E00000020FEF78BFC10B10020BDE8F081083403
:101E10000836A045E7D80120F7E72DE9F04115463F
:101E20000E4607460124FEF7CFFC29463846FFF749
:101E300097FF012801D0002406E02A4631463846A3
:101E4000FFF7C6FF0128F6D1FEF75EFC2046BDE88D
:101E5000F081000070B5012405210B4800F090F8D6
:101E600001280AD1084A09480021535C455CAB426D
:101E700006D032210448FEF702FA0024204670BD45
:101E8000491C0529F1DBF9E7001000203000002093
:101E900070B590B0002214466E4606E006EBC20311
:101EA00010F8015BC3E90054521C8A42F6DB082992
:101EB00007D308E0FF22002306EBC100491CC0E95C
:101EC00000230829F6DB9DE80F0040EA02201B02F0
:101ED00043EA12631943DDE904231B0443EA124376
:101EE0001404DDE906252D0645EA122544EA0264BC
:101EF0002B43089A2043194311430A9A41EA0221CD
:101F00000C9A41EA02410E9A10B041EA026170BD9A
:101F10000B4910B5486880B1CA6882420CD10022D2
:101F2000CA604A601146074A074B02E0545C5C54A1
:101F3000491C8142FAD310BDC860002010BD0000CA
:101F400058000020001000209000002070B50646C8
:101F50004FF6FF7000234AF201050DE0F25C50409D
:101F6000002210F0010F4FEA500000D06840521CD0
:101F700092B2082AF5D35B1C8B42EFD370BD0000F0
:101F800010B50C46891E0948FFF7E0FF0749C3B2A8
:101F9000214411F8022C9A4206D111F8011CB1EB30
:101FA000102F01D1012010BD002010BD9000002095
:101FB00070B505460C460448FEF79EF921462846B2
:101FC000BDE87040FFF7DCBB350000202DE9F05F75
:101FD000FFF79EFFDFF818B2864E874D01004FF0E5
:101FE00001084FF0080A4FF0C8074FF0000416D060
:101FF000687810B1012812D112E0FFF72BFF0128F9
:1020000001D04046C2E0AC703474B474204600F095
:1020100001F985F80180EC804FF49670A880B9E052
:102020007648FFF7ADFF00287ED0744886F8108010
:10203000017871714178B1718178F171C178317233
:102040000179B1724179F1726C4980793073B1F8DC
:1020500007104ABAF281C0B9DBF800306448001DAD
:10206000006864494FEA132C10390C7081F801C0E4
:102070004FEA134C81F802C01B0ECB700871030AA3
:102080004B71030C8B71000EC8715C48114609300E
:102090008146FFF78DFFF37AF28949460BEBC320A7
:1020A000FFF754FE012809D085F802A0504686F8B3
:1020B000108000F0AFF8307BB8B36BE0B07C4FF02D
:1020C0000909401CC0B2B074317B39B185F8029067
:1020D000484686F8108000F09DF840E0B17A8842CA
:1020E00040D185F80290484686F8108000F092F8BA
:1020F0006420FEF781FADFF80891D9F80410BAEBF2
:10210000116F20D13B48112110380822017080F84E
:102110000180317A0171F1794171B17981717179FF
:10212000C1710146584601E02FE027E0FFF775FE38
:102130000620A870347400F06DF885F800804846D9
:10214000FFF7B8FD26E02B49082210395846FFF763
:1021500064FE0420A870347400F05CF86C70EC80AD
:10216000AF8017E02349082210395846FFF755FE83
:1021700085F80290484686F81080EDE71D49082250
:1021800010395846FFF749FEE8E70220A87034747A
:1021900000F040F8E888401C80B2E880A9888842B6
:1021A00024D9DBF80000A860C0B2112801D00320B8
:1021B00015E0DFF84C90D9F80410BAEB116F0DD18F
:1021C0000720A870347400F025F8EC80AF8085F803
:1021D0000080484600F016B8FFF76CBD0420A870D8
:1021E000347400F017F86C70EC80AF8000F00FB81A
:1021F000007800087C0000204800002090000020AB
:102200000080000830BCBDE8C05FFFF7E5BF30BC10
:10221000BDE8C09F2DE9F05F424A00240227117CEF
:102220000123414D4FF003094FF0040A4FF0050B15
:102230004FF0070E264601290AD0DFF8F0C0112121
:10224000082857D2DFE800F0252B2F38334C3D51BA
:102250005179297091796970D179A970117AE970F1
:10226000917A2971D17A6971117BA971D189082775
:102270000C0AEC71297209210C46082802D00928A1
:1022800038D102E06E72AF7201E06B72A9720B245A
:1022900030E0DCF8000029706970AE7017E029703A
:1022A0006970AB7025E029706970AF7021E029700A
:1022B000697085F802A01CE02970697085F80290A9
:1022C00017E0DCF80000297069700621A970010E82
:1022D000E970010C2971010A6971A871072409E0EC
:1022E0002970697085F802B003E02970697085F87B
:1022F00002E00324167421460B48FFF727FE2855F9
:10230000641C000A28550A48641C0121046009481D
:102310000660002000F072F800F00EB80520FEF70D
:102320006BB900007C000020900C002004780008AD
:10233000680000206000002030BCBDE8C05FFFF7EF
:10234000EDBF00001CB511480168114A91602222BE
:10235000B2EB116F19D011218DF8001000218DF80A
:1023600001108DF8021001218DF8041002218DF862
:10237000051003218DF8061004218DF803208DF837
:10238000071008226946FFF748FD1CBD00780008C9
:10239000480000200A48828C0B490A4B48681A54AE
:1023A000401C48600949097831B1B0F5406F05D348
:1023B0000021084600F022B80A28F9D27047000030
:1023C000008000400010002058000020490000203C
:1023D0000849074A084B8868125C1A85401C8860C7
:1023E0000969884203D30021012000F007B8704733
:1023F000900C0020580000200080004010B50B46D3
:102400000446FDF7B7FF0C4A106814B140F02500F0
:1024100001E020F024001060106833B120F0C0000B
:102420001060106840F0490001E020F0C800106022
:10243000BDE81040FDF7A8BF0080004010B5B4B063
:10244000442123A8FDF71BFF8C216846FDF717FFE9
:10245000FEF7BAFB124850F8901F21F018010160F6
:102460000E20239001202590040228904020CDE9E1
:10247000264023A8FEF77EFE00B1FEE70948009043
:102480004FF4006013904FF4402022941890684657
:10249000FEF7A4FB002800D0FEE734B010BD00001A
:1024A000001002402002020010B596B04421684698
:1024B000FDF7E5FE142111A8FDF7E1FE10200090C4
:1024C0000120069080200024CDE907406846FEF7F1
:1024D00051FE00B1FEE70F20CDE9110413941494CE
:1024E000012111A81594FEF75DFD002800D0FEE73C
:1024F00016B010BD10B596B044216846FDF7BFFE7A
:10250000142111A8FDF7BBFE1020009001200690B9
:1025100060200024CDE907406846FEF72BFE00B19D
:10252000FEE70F20CDE9110413941494002111A8A3
:102530001594FEF737FD002800D0FEE716B010BD59
:102540002DE9F74F86B00E46044601251421684652
:10255000FDF795FE644FF86D40F00100F865F86DE9
:1025600000F001000590F86C40F00400F864F86C8D
:1025700000F004000590F86C40F00200F864F86C7C
:102580004FF0020800F00200059003204FF0010B0D
:102590008DE801094FF000094FF0080ACDE9039AD0
:1025A00069465248FEF724F901AA4046CDF810A02A
:1025B000CDF8008082E8010A69464D48FEF718F917
:1025C000012202214620FEF761FA4620FEF750FA6A
:1025D000DFF82081D8F8000020F00100C8F80000E2
:1025E000D8F8000044490840C8F80000089820B115
:1025F00001280ED002281FD119E0072E04D0082E82
:1026000019D1D8F8000054E0D8F8000040F080500C
:102610004FE0072E06D0082E0DD1D8F8000040F468
:10262000B05046E0D8F8000040F4C06041E0072E0A
:102630003BD0082E34D00025D8F8040020F44050B8
:10264000C8F80400D8F80400C8F80400D8F8080056
:1026500020F44270C8F80800D8F80800C8F808004C
:10266000D8F8080040F48040C8F80800D8F80800FE
:1026700020F40040C8F808002049D8F80000204A9B
:1026800010400843C8F80000600857F8881FB4F5E8
:10269000965F11D841F4406139604FF4000211E0B7
:1026A000D8F8000040F4A05003E0D8F8000040F44F
:1026B0008060C8F80000BFE721F4406141F4006188
:1026C0003960104A0023801849F100012246FDF7C5
:1026D00089FDC8F80C0000210120FFF78FFE09B02A
:1026E000284600F011B80000001002400008004821
:1026F0000004004800800040F3E9FFEF0000010201
:10270000FFFF00FC000024F430BCBDE8C08F0000D7
:102710000000000000000000010203040607080991
:10272000A0860100400D0300801A060000350C0051
:1027300040420F0080841E0000093D0000127A0014
:102740000024F40000366E010048E801006CDC0251
:10275000637C777BF26B6FC53001672BFED7AB765E
:10276000CA82C97DFA5947F0ADD4A2AF9CA472C009
:10277000B7FD9326363FF7CC34A5E5F171D8311576
:1027800004C723C31896059A071280E2EB27B27597
:1027900009832C1A1B6E5AA0523BD6B329E32F840F
:1027A00053D100ED20FCB15B6ACBBE394A4C58CF07
:1027B000D0EFAAFB434D338545F9027F503C9FA8DB
:1027C00051A3408F929D38F5BCB6DA2110FFF3D2A9
:1027D000CD0C13EC5F974417C4A77E3D645D19735D
:1027E00060814FDC222A908846EEB814DE5E0BDB57
:1027F000E0323A0A4906245CC2D3AC629195E4798E
:10280000E7C8376D8DD54EA96C56F4EA657AAE08E7
:10281000BA78252E1CA6B4C6E8DD741F4BBD8B8A82
:10282000703EB5664803F60E613557B986C11D9EE8
:10283000E1F8981169D98E949B1E87E9CE5528DF5F
:102840008CA1890DBFE6426841992D0FB054BB168B
:1028500052096AD53036A538BF40A39E81F3D7FB15
:102860007CE339829B2FFF87348E4344C4DEE9CB5F
:10287000547B9432A6C2233DEE4C950B42FAC34ED4
:10288000082EA16628D924B2765BA2496D8BD1258A
:1028900072F8F66486689816D4A45CCC5D65B6922E
:1028A0006C704850FDEDB9DA5E154657A78D9D84D2
:1028B00090D8AB008CBCD30AF7E45805B8B34506F2
:1028C000D02C1E8FCA3F0F02C1AFBD0301138A6B0C
:1028D0003A9111414F67DCEA97F2CFCEF0B4E6733C
:1028E00096AC7422E7AD3585E2F937E81C75DF6EEA
:1028F00047F11A711D29C5896FB7620EAA18BE1B50
:10290000FC563E4BC6D279209ADBC0FE78CD5AF4F5
:102910001FDDA8338807C731B11210592780EC5F3B
:1029200060517FA919B54A0D2DE57A9F93C99CEF97
:10293000A0E03B4DAE2AF5B0C8EBBB3C8353996198
:10294000172B047EBA77D626E169146355210C7DD6
:1029500070290008000000206C000000961C000890
:10296000DC2900086C000020941F0000A61C000851
:1029700000093D0001000000100000000000000000
:102980000000000000000000000000000000000047
:102990000100000000000000000000000000000036
:1029A00011223379702B7E151628AED2A6ABF715FF
:1029B0008809CF4F3C00000000000300C800000061
:1029C0000000000000000000000000000000000007
:0C29D000000000000000000000000000FB
:04000005080001AD41
:00000001FF
